{"contracts/VaultifyChain.sol":{"VaultifyChain":{"abi":[{"anonymous":false,"inputs":[{"indexed":true,"internalType":"string","name":"fileHash","type":"string"},{"indexed":true,"internalType":"address","name":"accessor","type":"address"},{"indexed":false,"internalType":"uint256","name":"timestamp","type":"uint256"},{"indexed":false,"internalType":"string","name":"action","type":"string"}],"name":"FileAccessed","type":"event"},{"anonymous":false,"inputs":[{"indexed":true,"internalType":"string","name":"fileHash","type":"string"},{"indexed":true,"internalType":"address","name":"uploader","type":"address"},{"indexed":true,"internalType":"address","name":"receiver","type":"address"},{"indexed":false,"internalType":"string","name":"ipfsCID","type":"string"},{"indexed":false,"internalType":"uint256","name":"timestamp","type":"uint256"}],"name":"FileUploaded","type":"event"},{"anonymous":false,"inputs":[{"indexed":true,"internalType":"string","name":"fileHash","type":"string"},{"indexed":true,"internalType":"address","name":"user","type":"address"},{"indexed":true,"internalType":"address","name":"authorizer","type":"address"}],"name":"UserAuthorized","type":"event"},{"anonymous":false,"inputs":[{"indexed":true,"internalType":"string","name":"fileHash","type":"string"},{"indexed":true,"internalType":"address","name":"user","type":"address"},{"indexed":true,"internalType":"address","name":"authorizer","type":"address"}],"name":"UserDeauthorized","type":"event"},{"inputs":[{"internalType":"string","name":"","type":"string"},{"internalType":"uint256","name":"","type":"uint256"}],"name":"accessLogs","outputs":[{"internalType":"address","name":"accessor","type":"address"},{"internalType":"uint256","name":"timestamp","type":"uint256"},{"internalType":"string","name":"action","type":"string"}],"stateMutability":"view","type":"function"},{"inputs":[{"internalType":"string","name":"_fileHash","type":"string"},{"internalType":"address","name":"_user","type":"address"}],"name":"addAuthorizedUser","outputs":[],"stateMutability":"nonpayable","type":"function"},{"inputs":[{"internalType":"string","name":"","type":"string"},{"internalType":"uint256","name":"","type":"uint256"}],"name":"authorizedUsers","outputs":[{"internalType":"address","name":"","type":"address"}],"stateMutability":"view","type":"function"},{"inputs":[{"internalType":"string","name":"","type":"string"}],"name":"files","outputs":[{"internalType":"string","name":"fileHash","type":"string"},{"internalType":"string","name":"ipfsCID","type":"string"},{"internalType":"address","name":"uploader","type":"address"},{"internalType":"address","name":"receiver","type":"address"},{"internalType":"uint256","name":"timestamp","type":"uint256"},{"internalType":"bool","name":"exists","type":"bool"}],"stateMutability":"view","type":"function"},{"inputs":[{"internalType":"string","name":"_fileHash","type":"string"}],"name":"getAccessLogs","outputs":[{"internalType":"address[]","name":"","type":"address[]"},{"internalType":"uint256[]","name":"","type":"uint256[]"},{"internalType":"string[]","name":"","type":"string[]"}],"stateMutability":"view","type":"function"},{"inputs":[{"internalType":"string","name":"_fileHash","type":"string"}],"name":"getAuthorizedUsers","outputs":[{"internalType":"address[]","name":"","type":"address[]"}],"stateMutability":"view","type":"function"},{"inputs":[{"internalType":"string","name":"_fileHash","type":"string"}],"name":"getFileRecord","outputs":[{"internalType":"string","name":"","type":"string"},{"internalType":"string","name":"","type":"string"},{"internalType":"address","name":"","type":"address"},{"internalType":"address","name":"","type":"address"},{"internalType":"uint256","name":"","type":"uint256"},{"internalType":"bool","name":"","type":"bool"}],"stateMutability":"view","type":"function"},{"inputs":[],"name":"getTotalFiles","outputs":[{"internalType":"uint256","name":"","type":"uint256"}],"stateMutability":"view","type":"function"},{"inputs":[{"internalType":"address","name":"_user","type":"address"}],"name":"getUserFiles","outputs":[{"internalType":"string[]","name":"","type":"string[]"}],"stateMutability":"view","type":"function"},{"inputs":[{"internalType":"string","name":"_fileHash","type":"string"},{"internalType":"address","name":"_user","type":"address"}],"name":"isAuthorizedUser","outputs":[{"internalType":"bool","name":"","type":"bool"}],"stateMutability":"view","type":"function"},{"inputs":[{"internalType":"string","name":"_fileHash","type":"string"},{"internalType":"string","name":"_action","type":"string"}],"name":"logAccess","outputs":[],"stateMutability":"nonpayable","type":"function"},{"inputs":[{"internalType":"string","name":"_fileHash","type":"string"},{"internalType":"address","name":"_user","type":"address"}],"name":"removeAuthorizedUser","outputs":[],"stateMutability":"nonpayable","type":"function"},{"inputs":[{"internalType":"string","name":"_fileHash","type":"string"},{"internalType":"string","name":"_ipfsCID","type":"string"},{"internalType":"address","name":"_receiver","type":"address"}],"name":"uploadFile","outputs":[],"stateMutability":"nonpayable","type":"function"},{"inputs":[{"internalType":"address","name":"","type":"address"},{"internalType":"uint256","name":"","type":"uint256"}],"name":"userFiles","outputs":[{"internalType":"string","name":"","type":"string"}],"stateMutability":"view","type":"function"}],"evm":{"bytecode":{"linkReferences":{},"object":"608060405234801561001057600080fd5b50611db9806100206000396000f3fe608060405234801561001057600080fd5b50600436106100ea5760003560e01c8063a68159851161008c578063cdba8e0e11610066578063cdba8e0e14610224578063d56812bb14610237578063e77557611461024a578063e89ce5a11461025d57600080fd5b8063a6815985146101c6578063ad877314146101d9578063ad9fd9811461020457600080fd5b80635f01f7b8116100c85780635f01f7b81461014f578063718f38a614610174578063766e0d33146101945780638e3107fe146101a357600080fd5b806315582f7f146100ef5780631fc37922146101045780634bc19d341461012d575b600080fd5b6101026100fd36600461173f565b61027f565b005b61011761011236600461178d565b61050d565b6040516101249190611857565b60405180910390f35b61014061013b36600461186a565b6105fc565b604051610124939291906118eb565b61016261015d36600461186a565b610902565b60405161012496959493929190611955565b6101876101823660046119ab565b610ad0565b60405161012491906119d5565b60405160008152602001610124565b6101b66101b136600461173f565b610b89565b6040519015158152602001610124565b6101026101d436600461173f565b610cab565b6101ec6101e73660046119e8565b610e9b565b6040516001600160a01b039091168152602001610124565b61021761021236600461186a565b610ee2565b6040516101249190611a2d565b610102610232366004611a40565b610f5c565b610102610245366004611ab4565b61122b565b61016261025836600461186a565b61143a565b61027061026b3660046119e8565b61159b565b60405161012493929190611b18565b816000816040516102909190611b48565b9081526040519081900360200190206005015460ff166102cb5760405162461bcd60e51b81526004016102c290611b64565b60405180910390fd5b336001600160a01b03166000826040516102e59190611b48565b908152604051908190036020019020600201546001600160a01b0316146103435760405162461bcd60e51b81526020600482015260126024820152712737ba103a3432903334b6329037bbb732b960711b60448201526064016102c2565b6001600160a01b0382166103905760405162461bcd60e51b8152602060048201526014602482015273496e76616c69642075736572206164647265737360601b60448201526064016102c2565b60006001846040516103a29190611b48565b9081526020016040518091039020905060005b815481101561050657836001600160a01b03168282815481106103da576103da611b91565b6000918252602090912001546001600160a01b0316036104f4578154829061040490600190611bbd565b8154811061041457610414611b91565b9060005260206000200160009054906101000a90046001600160a01b031682828154811061044457610444611b91565b9060005260206000200160006101000a8154816001600160a01b0302191690836001600160a01b031602179055508180548061048257610482611bd0565b600082815260209020810160001990810180546001600160a01b031916905501905560405133906001600160a01b038616906104bf908890611b48565b604051908190038120907fcf6a927f9d34a4b2990f0b8fbab165c38aa90673c477e0582628457e247e9b3090600090a4610506565b806104fe81611be6565b9150506103b5565b5050505050565b6001600160a01b0381166000908152600360209081526040808320805482518185028101850190935280835260609492939192909184015b828210156105f157838290600052602060002001805461056490611bff565b80601f016020809104026020016040519081016040528092919081815260200182805461059090611bff565b80156105dd5780601f106105b2576101008083540402835291602001916105dd565b820191906000526020600020905b8154815290600101906020018083116105c057829003601f168201915b505050505081526020019060010190610545565b505050509050919050565b606080606060006002856040516106139190611b48565b9081526020016040518091039020805480602002602001604051908101604052809291908181526020016000905b82821015610725576000848152602090819020604080516060810182526003860290920180546001600160a01b031683526001810154938301939093526002830180549293929184019161069490611bff565b80601f01602080910402602001604051908101604052809291908181526020018280546106c090611bff565b801561070d5780601f106106e25761010080835404028352916020019161070d565b820191906000526020600020905b8154815290600101906020018083116106f057829003601f168201915b50505050508152505081526020019060010190610641565b5050505090506000815167ffffffffffffffff81111561074757610747611680565b604051908082528060200260200182016040528015610770578160200160208202803683370190505b5090506000825167ffffffffffffffff81111561078f5761078f611680565b6040519080825280602002602001820160405280156107b8578160200160208202803683370190505b5090506000835167ffffffffffffffff8111156107d7576107d7611680565b60405190808252806020026020018201604052801561080a57816020015b60608152602001906001900390816107f55790505b50905060005b84518110156108f35784818151811061082b5761082b611b91565b60200260200101516000015184828151811061084957610849611b91565b60200260200101906001600160a01b031690816001600160a01b03168152505084818151811061087b5761087b611b91565b60200260200101516020015183828151811061089957610899611b91565b6020026020010181815250508481815181106108b7576108b7611b91565b6020026020010151604001518282815181106108d5576108d5611b91565b602002602001018190525080806108eb90611be6565b915050610810565b50919790965090945092505050565b6060806000806000806000808860405161091c9190611b48565b90815260200160405180910390206040518060c001604052908160008201805461094590611bff565b80601f016020809104026020016040519081016040528092919081815260200182805461097190611bff565b80156109be5780601f10610993576101008083540402835291602001916109be565b820191906000526020600020905b8154815290600101906020018083116109a157829003601f168201915b505050505081526020016001820180546109d790611bff565b80601f0160208091040260200160405190810160405280929190818152602001828054610a0390611bff565b8015610a505780601f10610a2557610100808354040283529160200191610a50565b820191906000526020600020905b815481529060010190602001808311610a3357829003601f168201915b505050918352505060028201546001600160a01b039081166020808401919091526003840154909116604080840191909152600484015460608085019190915260059094015460ff16151560809384015284519185015190850151938501519285015160a090950151919d909c50929a5090985091965090945092505050565b60036020528160005260406000208181548110610aec57600080fd5b90600052602060002001600091509150508054610b0890611bff565b80601f0160208091040260200160405190810160405280929190818152602001828054610b3490611bff565b8015610b815780601f10610b5657610100808354040283529160200191610b81565b820191906000526020600020905b815481529060010190602001808311610b6457829003601f168201915b505050505081565b6000816001600160a01b0316600084604051610ba59190611b48565b908152604051908190036020019020600201546001600160a01b031603610bce57506001610ca5565b6000600184604051610be09190611b48565b9081526040805191829003602090810183208054808302850183019093528284529190830182828015610c3c57602002820191906000526020600020905b81546001600160a01b03168152600190910190602001808311610c1e575b5050505050905060005b8151811015610c9e57836001600160a01b0316828281518110610c6b57610c6b611b91565b60200260200101516001600160a01b031603610c8c57600192505050610ca5565b80610c9681611be6565b915050610c46565b5060009150505b92915050565b81600081604051610cbc9190611b48565b9081526040519081900360200190206005015460ff16610cee5760405162461bcd60e51b81526004016102c290611b64565b336001600160a01b0316600082604051610d089190611b48565b908152604051908190036020019020600201546001600160a01b031614610d665760405162461bcd60e51b81526020600482015260126024820152712737ba103a3432903334b6329037bbb732b960711b60448201526064016102c2565b6001600160a01b038216610db35760405162461bcd60e51b8152602060048201526014602482015273496e76616c69642075736572206164647265737360601b60448201526064016102c2565b610dbd8383610b89565b15610e0a5760405162461bcd60e51b815260206004820152601760248201527f5573657220616c726561647920617574686f72697a656400000000000000000060448201526064016102c2565b600183604051610e1a9190611b48565b9081526040519081900360209081018220805460018101825560009182529190200180546001600160a01b0385166001600160a01b031990911681179091553391610e66908690611b48565b604051908190038120907f04284ba4cdade451c74e66c8449cfe35032420f69dfcd9d6cd394c269439b5be90600090a4505050565b81516020818401810180516001825292820191850191909120919052805482908110610ec657600080fd5b6000918252602090912001546001600160a01b03169150829050565b6060600182604051610ef49190611b48565b9081526040805191829003602090810183208054808302850183019093528284529190830182828015610f5057602002820191906000526020600020905b81546001600160a01b03168152600190910190602001808311610f32575b50505050509050919050565b6000835111610fad5760405162461bcd60e51b815260206004820152601960248201527f46696c6520686173682063616e6e6f7420626520656d7074790000000000000060448201526064016102c2565b6000825111610ffe5760405162461bcd60e51b815260206004820152601860248201527f49504653204349442063616e6e6f7420626520656d707479000000000000000060448201526064016102c2565b60008360405161100e9190611b48565b9081526040519081900360200190206005015460ff16156110675760405162461bcd60e51b815260206004820152601360248201527246696c6520616c72656164792065786973747360681b60448201526064016102c2565b6040805160c0810182528481526020810184905233818301526001600160a01b0383166060820152426080820152600160a082015290516000906110ac908690611b48565b908152604051908190036020019020815181906110c99082611c88565b50602082015160018201906110de9082611c88565b506040828101516002830180546001600160a01b03199081166001600160a01b0393841617909155606085015160038086018054909316919093161790556080840151600484015560a0909301516005909201805460ff19169215159290921790915533600090815260209283529081208054600181018255908252919020016111688482611c88565b506001600160a01b038116156111c3576001836040516111889190611b48565b90815260405160209181900382019020805460018101825560009182529190200180546001600160a01b0319166001600160a01b0383161790555b806001600160a01b0316336001600160a01b0316846040516111e59190611b48565b60405180910390207f8cca4564155382fff489e79f6dac28285021dd184ebcedb6790ef06986b2dec7854260405161121e929190611d48565b60405180910390a4505050565b8160008160405161123c9190611b48565b9081526040519081900360200190206005015460ff1661126e5760405162461bcd60e51b81526004016102c290611b64565b336001600160a01b03166000826040516112889190611b48565b908152604051908190036020019020600201546001600160a01b031614806112b557506112b58133610b89565b61130c5760405162461bcd60e51b815260206004820152602260248201527f4e6f7420617574686f72697a656420746f2061636365737320746869732066696044820152616c6560f01b60648201526084016102c2565b60008251116113565760405162461bcd60e51b8152602060048201526016602482015275416374696f6e2063616e6e6f7420626520656d70747960501b60448201526064016102c2565b6002836040516113669190611b48565b908152604080516020928190038301812060608201835233825242848301908152928201868152815460018082018455600093845295909220835160039093020180546001600160a01b0319166001600160a01b03909316929092178255925193810193909355905190919060028201906113e19082611c88565b50506040513391506113f4908590611b48565b60405180910390207fe923d4bd4038ae165d90aee570fb1423c37fd46fa3911f5ea54585f52e08e520428560405161142d929190611d6a565b60405180910390a3505050565b805160208183018101805160008252928201919093012091528054819061146090611bff565b80601f016020809104026020016040519081016040528092919081815260200182805461148c90611bff565b80156114d95780601f106114ae576101008083540402835291602001916114d9565b820191906000526020600020905b8154815290600101906020018083116114bc57829003601f168201915b5050505050908060010180546114ee90611bff565b80601f016020809104026020016040519081016040528092919081815260200182805461151a90611bff565b80156115675780601f1061153c57610100808354040283529160200191611567565b820191906000526020600020905b81548152906001019060200180831161154a57829003601f168201915b5050505060028301546003840154600485015460059095015493946001600160a01b03928316949290911692509060ff1686565b815160208184018101805160028252928201918501919091209190528054829081106115c657600080fd5b60009182526020909120600390910201805460018201546002830180546001600160a01b039093169550909350906115fd90611bff565b80601f016020809104026020016040519081016040528092919081815260200182805461162990611bff565b80156116765780601f1061164b57610100808354040283529160200191611676565b820191906000526020600020905b81548152906001019060200180831161165957829003601f168201915b5050505050905083565b634e487b7160e01b600052604160045260246000fd5b600082601f8301126116a757600080fd5b813567ffffffffffffffff808211156116c2576116c2611680565b604051601f8301601f19908116603f011681019082821181831017156116ea576116ea611680565b8160405283815286602085880101111561170357600080fd5b836020870160208301376000602085830101528094505050505092915050565b80356001600160a01b038116811461173a57600080fd5b919050565b6000806040838503121561175257600080fd5b823567ffffffffffffffff81111561176957600080fd5b61177585828601611696565b92505061178460208401611723565b90509250929050565b60006020828403121561179f57600080fd5b6117a882611723565b9392505050565b60005b838110156117ca5781810151838201526020016117b2565b50506000910152565b600081518084526117eb8160208601602086016117af565b601f01601f19169290920160200192915050565b600082825180855260208086019550808260051b84010181860160005b8481101561184a57601f198684030189526118388383516117d3565b9884019892509083019060010161181c565b5090979650505050505050565b6020815260006117a860208301846117ff565b60006020828403121561187c57600080fd5b813567ffffffffffffffff81111561189357600080fd5b61189f84828501611696565b949350505050565b600081518084526020808501945080840160005b838110156118e05781516001600160a01b0316875295820195908201906001016118bb565b509495945050505050565b6060815260006118fe60608301866118a7565b82810360208481019190915285518083528682019282019060005b8181101561193557845183529383019391830191600101611919565b5050848103604086015261194981876117ff565b98975050505050505050565b60c08152600061196860c08301896117d3565b828103602084015261197a81896117d3565b6001600160a01b039788166040850152959096166060830152506080810192909252151560a0909101529392505050565b600080604083850312156119be57600080fd5b6119c783611723565b946020939093013593505050565b6020815260006117a860208301846117d3565b600080604083850312156119fb57600080fd5b823567ffffffffffffffff811115611a1257600080fd5b611a1e85828601611696565b95602094909401359450505050565b6020815260006117a860208301846118a7565b600080600060608486031215611a5557600080fd5b833567ffffffffffffffff80821115611a6d57600080fd5b611a7987838801611696565b94506020860135915080821115611a8f57600080fd5b50611a9c86828701611696565b925050611aab60408501611723565b90509250925092565b60008060408385031215611ac757600080fd5b823567ffffffffffffffff80821115611adf57600080fd5b611aeb86838701611696565b93506020850135915080821115611b0157600080fd5b50611b0e85828601611696565b9150509250929050565b60018060a01b0384168152826020820152606060408201526000611b3f60608301846117d3565b95945050505050565b60008251611b5a8184602087016117af565b9190910192915050565b602080825260139082015272119a5b1948191bd95cc81b9bdd08195e1a5cdd606a1b604082015260600190565b634e487b7160e01b600052603260045260246000fd5b634e487b7160e01b600052601160045260246000fd5b81810381811115610ca557610ca5611ba7565b634e487b7160e01b600052603160045260246000fd5b600060018201611bf857611bf8611ba7565b5060010190565b600181811c90821680611c1357607f821691505b602082108103611c3357634e487b7160e01b600052602260045260246000fd5b50919050565b601f821115611c8357600081815260208120601f850160051c81016020861015611c605750805b601f850160051c820191505b81811015611c7f57828155600101611c6c565b5050505b505050565b815167ffffffffffffffff811115611ca257611ca2611680565b611cb681611cb08454611bff565b84611c39565b602080601f831160018114611ceb5760008415611cd35750858301515b600019600386901b1c1916600185901b178555611c7f565b600085815260208120601f198616915b82811015611d1a57888601518255948401946001909101908401611cfb565b5085821015611d385787850151600019600388901b60f8161c191681555b5050505050600190811b01905550565b604081526000611d5b60408301856117d3565b90508260208301529392505050565b82815260406020820152600061189f60408301846117d356fea26469706673582212209e7e0e8e187c2ee9df5a40a3be971f20a788f135ddc12412385047a69243158664736f6c63430008130033","opcodes":"PUSH1 0x80 PUSH1 0x40 MSTORE CALLVALUE DUP1 ISZERO PUSH2 0x10 JUMPI PUSH1 0x0 DUP1 REVERT JUMPDEST POP PUSH2 0x1DB9 DUP1 PUSH2 0x20 PUSH1 0x0 CODECOPY PUSH1 0x0 RETURN INVALID PUSH1 0x80 PUSH1 0x40 MSTORE CALLVALUE DUP1 ISZERO PUSH2 0x10 JUMPI PUSH1 0x0 DUP1 REVERT JUMPDEST POP PUSH1 0x4 CALLDATASIZE LT PUSH2 0xEA JUMPI PUSH1 0x0 CALLDATALOAD PUSH1 0xE0 SHR DUP1 PUSH4 0xA6815985 GT PUSH2 0x8C JUMPI DUP1 PUSH4 0xCDBA8E0E GT PUSH2 0x66 JUMPI DUP1 PUSH4 0xCDBA8E0E EQ PUSH2 0x224 JUMPI DUP1 PUSH4 0xD56812BB EQ PUSH2 0x237 JUMPI DUP1 PUSH4 0xE7755761 EQ PUSH2 0x24A JUMPI DUP1 PUSH4 0xE89CE5A1 EQ PUSH2 0x25D JUMPI PUSH1 0x0 DUP1 REVERT JUMPDEST DUP1 PUSH4 0xA6815985 EQ PUSH2 0x1C6 JUMPI DUP1 PUSH4 0xAD877314 EQ PUSH2 0x1D9 JUMPI DUP1 PUSH4 0xAD9FD981 EQ PUSH2 0x204 JUMPI PUSH1 0x0 DUP1 REVERT JUMPDEST DUP1 PUSH4 0x5F01F7B8 GT PUSH2 0xC8 JUMPI DUP1 PUSH4 0x5F01F7B8 EQ PUSH2 0x14F JUMPI DUP1 PUSH4 0x718F38A6 EQ PUSH2 0x174 JUMPI DUP1 PUSH4 0x766E0D33 EQ PUSH2 0x194 JUMPI DUP1 PUSH4 0x8E3107FE EQ PUSH2 0x1A3 JUMPI PUSH1 0x0 DUP1 REVERT JUMPDEST DUP1 PUSH4 0x15582F7F EQ PUSH2 0xEF JUMPI DUP1 PUSH4 0x1FC37922 EQ PUSH2 0x104 JUMPI DUP1 PUSH4 0x4BC19D34 EQ PUSH2 0x12D JUMPI JUMPDEST PUSH1 0x0 DUP1 REVERT JUMPDEST PUSH2 0x102 PUSH2 0xFD CALLDATASIZE PUSH1 0x4 PUSH2 0x173F JUMP JUMPDEST PUSH2 0x27F JUMP JUMPDEST STOP JUMPDEST PUSH2 0x117 PUSH2 0x112 CALLDATASIZE PUSH1 0x4 PUSH2 0x178D JUMP JUMPDEST PUSH2 0x50D JUMP JUMPDEST PUSH1 0x40 MLOAD PUSH2 0x124 SWAP2 SWAP1 PUSH2 0x1857 JUMP JUMPDEST PUSH1 0x40 MLOAD DUP1 SWAP2 SUB SWAP1 RETURN JUMPDEST PUSH2 0x140 PUSH2 0x13B CALLDATASIZE PUSH1 0x4 PUSH2 0x186A JUMP JUMPDEST PUSH2 0x5FC JUMP JUMPDEST PUSH1 0x40 MLOAD PUSH2 0x124 SWAP4 SWAP3 SWAP2 SWAP1 PUSH2 0x18EB JUMP JUMPDEST PUSH2 0x162 PUSH2 0x15D CALLDATASIZE PUSH1 0x4 PUSH2 0x186A JUMP JUMPDEST PUSH2 0x902 JUMP JUMPDEST PUSH1 0x40 MLOAD PUSH2 0x124 SWAP7 SWAP6 SWAP5 SWAP4 SWAP3 SWAP2 SWAP1 PUSH2 0x1955 JUMP JUMPDEST PUSH2 0x187 PUSH2 0x182 CALLDATASIZE PUSH1 0x4 PUSH2 0x19AB JUMP JUMPDEST PUSH2 0xAD0 JUMP JUMPDEST PUSH1 0x40 MLOAD PUSH2 0x124 SWAP2 SWAP1 PUSH2 0x19D5 JUMP JUMPDEST PUSH1 0x40 MLOAD PUSH1 0x0 DUP2 MSTORE PUSH1 0x20 ADD PUSH2 0x124 JUMP JUMPDEST PUSH2 0x1B6 PUSH2 0x1B1 CALLDATASIZE PUSH1 0x4 PUSH2 0x173F JUMP JUMPDEST PUSH2 0xB89 JUMP JUMPDEST PUSH1 0x40 MLOAD SWAP1 ISZERO ISZERO DUP2 MSTORE PUSH1 0x20 ADD PUSH2 0x124 JUMP JUMPDEST PUSH2 0x102 PUSH2 0x1D4 CALLDATASIZE PUSH1 0x4 PUSH2 0x173F JUMP JUMPDEST PUSH2 0xCAB JUMP JUMPDEST PUSH2 0x1EC PUSH2 0x1E7 CALLDATASIZE PUSH1 0x4 PUSH2 0x19E8 JUMP JUMPDEST PUSH2 0xE9B JUMP JUMPDEST PUSH1 0x40 MLOAD PUSH1 0x1 PUSH1 0x1 PUSH1 0xA0 SHL SUB SWAP1 SWAP2 AND DUP2 MSTORE PUSH1 0x20 ADD PUSH2 0x124 JUMP JUMPDEST PUSH2 0x217 PUSH2 0x212 CALLDATASIZE PUSH1 0x4 PUSH2 0x186A JUMP JUMPDEST PUSH2 0xEE2 JUMP JUMPDEST PUSH1 0x40 MLOAD PUSH2 0x124 SWAP2 SWAP1 PUSH2 0x1A2D JUMP JUMPDEST PUSH2 0x102 PUSH2 0x232 CALLDATASIZE PUSH1 0x4 PUSH2 0x1A40 JUMP JUMPDEST PUSH2 0xF5C JUMP JUMPDEST PUSH2 0x102 PUSH2 0x245 CALLDATASIZE PUSH1 0x4 PUSH2 0x1AB4 JUMP JUMPDEST PUSH2 0x122B JUMP JUMPDEST PUSH2 0x162 PUSH2 0x258 CALLDATASIZE PUSH1 0x4 PUSH2 0x186A JUMP JUMPDEST PUSH2 0x143A JUMP JUMPDEST PUSH2 0x270 PUSH2 0x26B CALLDATASIZE PUSH1 0x4 PUSH2 0x19E8 JUMP JUMPDEST PUSH2 0x159B JUMP JUMPDEST PUSH1 0x40 MLOAD PUSH2 0x124 SWAP4 SWAP3 SWAP2 SWAP1 PUSH2 0x1B18 JUMP JUMPDEST DUP2 PUSH1 0x0 DUP2 PUSH1 0x40 MLOAD PUSH2 0x290 SWAP2 SWAP1 PUSH2 0x1B48 JUMP JUMPDEST SWAP1 DUP2 MSTORE PUSH1 0x40 MLOAD SWAP1 DUP2 SWAP1 SUB PUSH1 0x20 ADD SWAP1 KECCAK256 PUSH1 0x5 ADD SLOAD PUSH1 0xFF AND PUSH2 0x2CB JUMPI PUSH1 0x40 MLOAD PUSH3 0x461BCD PUSH1 0xE5 SHL DUP2 MSTORE PUSH1 0x4 ADD PUSH2 0x2C2 SWAP1 PUSH2 0x1B64 JUMP JUMPDEST PUSH1 0x40 MLOAD DUP1 SWAP2 SUB SWAP1 REVERT JUMPDEST CALLER PUSH1 0x1 PUSH1 0x1 PUSH1 0xA0 SHL SUB AND PUSH1 0x0 DUP3 PUSH1 0x40 MLOAD PUSH2 0x2E5 SWAP2 SWAP1 PUSH2 0x1B48 JUMP JUMPDEST SWAP1 DUP2 MSTORE PUSH1 0x40 MLOAD SWAP1 DUP2 SWAP1 SUB PUSH1 0x20 ADD SWAP1 KECCAK256 PUSH1 0x2 ADD SLOAD PUSH1 0x1 PUSH1 0x1 PUSH1 0xA0 SHL SUB AND EQ PUSH2 0x343 JUMPI PUSH1 0x40 MLOAD PUSH3 0x461BCD PUSH1 0xE5 SHL DUP2 MSTORE PUSH1 0x20 PUSH1 0x4 DUP3 ADD MSTORE PUSH1 0x12 PUSH1 0x24 DUP3 ADD MSTORE PUSH18 0x2737BA103A3432903334B6329037BBB732B9 PUSH1 0x71 SHL PUSH1 0x44 DUP3 ADD MSTORE PUSH1 0x64 ADD PUSH2 0x2C2 JUMP JUMPDEST PUSH1 0x1 PUSH1 0x1 PUSH1 0xA0 SHL SUB DUP3 AND PUSH2 0x390 JUMPI PUSH1 0x40 MLOAD PUSH3 0x461BCD PUSH1 0xE5 SHL DUP2 MSTORE PUSH1 0x20 PUSH1 0x4 DUP3 ADD MSTORE PUSH1 0x14 PUSH1 0x24 DUP3 ADD MSTORE PUSH20 0x496E76616C696420757365722061646472657373 PUSH1 0x60 SHL PUSH1 0x44 DUP3 ADD MSTORE PUSH1 0x64 ADD PUSH2 0x2C2 JUMP JUMPDEST PUSH1 0x0 PUSH1 0x1 DUP5 PUSH1 0x40 MLOAD PUSH2 0x3A2 SWAP2 SWAP1 PUSH2 0x1B48 JUMP JUMPDEST SWAP1 DUP2 MSTORE PUSH1 0x20 ADD PUSH1 0x40 MLOAD DUP1 SWAP2 SUB SWAP1 KECCAK256 SWAP1 POP PUSH1 0x0 JUMPDEST DUP2 SLOAD DUP2 LT ISZERO PUSH2 0x506 JUMPI DUP4 PUSH1 0x1 PUSH1 0x1 PUSH1 0xA0 SHL SUB AND DUP3 DUP3 DUP2 SLOAD DUP2 LT PUSH2 0x3DA JUMPI PUSH2 0x3DA PUSH2 0x1B91 JUMP JUMPDEST PUSH1 0x0 SWAP2 DUP3 MSTORE PUSH1 0x20 SWAP1 SWAP2 KECCAK256 ADD SLOAD PUSH1 0x1 PUSH1 0x1 PUSH1 0xA0 SHL SUB AND SUB PUSH2 0x4F4 JUMPI DUP2 SLOAD DUP3 SWAP1 PUSH2 0x404 SWAP1 PUSH1 0x1 SWAP1 PUSH2 0x1BBD JUMP JUMPDEST DUP2 SLOAD DUP2 LT PUSH2 0x414 JUMPI PUSH2 0x414 PUSH2 0x1B91 JUMP JUMPDEST SWAP1 PUSH1 0x0 MSTORE PUSH1 0x20 PUSH1 0x0 KECCAK256 ADD PUSH1 0x0 SWAP1 SLOAD SWAP1 PUSH2 0x100 EXP SWAP1 DIV PUSH1 0x1 PUSH1 0x1 PUSH1 0xA0 SHL SUB AND DUP3 DUP3 DUP2 SLOAD DUP2 LT PUSH2 0x444 JUMPI PUSH2 0x444 PUSH2 0x1B91 JUMP JUMPDEST SWAP1 PUSH1 0x0 MSTORE PUSH1 0x20 PUSH1 0x0 KECCAK256 ADD PUSH1 0x0 PUSH2 0x100 EXP DUP2 SLOAD DUP2 PUSH1 0x1 PUSH1 0x1 PUSH1 0xA0 SHL SUB MUL NOT AND SWAP1 DUP4 PUSH1 0x1 PUSH1 0x1 PUSH1 0xA0 SHL SUB AND MUL OR SWAP1 SSTORE POP DUP2 DUP1 SLOAD DUP1 PUSH2 0x482 JUMPI PUSH2 0x482 PUSH2 0x1BD0 JUMP JUMPDEST PUSH1 0x0 DUP3 DUP2 MSTORE PUSH1 0x20 SWAP1 KECCAK256 DUP2 ADD PUSH1 0x0 NOT SWAP1 DUP2 ADD DUP1 SLOAD PUSH1 0x1 PUSH1 0x1 PUSH1 0xA0 SHL SUB NOT AND SWAP1 SSTORE ADD SWAP1 SSTORE PUSH1 0x40 MLOAD CALLER SWAP1 PUSH1 0x1 PUSH1 0x1 PUSH1 0xA0 SHL SUB DUP7 AND SWAP1 PUSH2 0x4BF SWAP1 DUP9 SWAP1 PUSH2 0x1B48 JUMP JUMPDEST PUSH1 0x40 MLOAD SWAP1 DUP2 SWAP1 SUB DUP2 KECCAK256 SWAP1 PUSH32 0xCF6A927F9D34A4B2990F0B8FBAB165C38AA90673C477E0582628457E247E9B30 SWAP1 PUSH1 0x0 SWAP1 LOG4 PUSH2 0x506 JUMP JUMPDEST DUP1 PUSH2 0x4FE DUP2 PUSH2 0x1BE6 JUMP JUMPDEST SWAP2 POP POP PUSH2 0x3B5 JUMP JUMPDEST POP POP POP POP POP JUMP JUMPDEST PUSH1 0x1 PUSH1 0x1 PUSH1 0xA0 SHL SUB DUP2 AND PUSH1 0x0 SWAP1 DUP2 MSTORE PUSH1 0x3 PUSH1 0x20 SWAP1 DUP2 MSTORE PUSH1 0x40 DUP1 DUP4 KECCAK256 DUP1 SLOAD DUP3 MLOAD DUP2 DUP6 MUL DUP2 ADD DUP6 ADD SWAP1 SWAP4 MSTORE DUP1 DUP4 MSTORE PUSH1 0x60 SWAP5 SWAP3 SWAP4 SWAP2 SWAP3 SWAP1 SWAP2 DUP5 ADD JUMPDEST DUP3 DUP3 LT ISZERO PUSH2 0x5F1 JUMPI DUP4 DUP3 SWAP1 PUSH1 0x0 MSTORE PUSH1 0x20 PUSH1 0x0 KECCAK256 ADD DUP1 SLOAD PUSH2 0x564 SWAP1 PUSH2 0x1BFF JUMP JUMPDEST DUP1 PUSH1 0x1F ADD PUSH1 0x20 DUP1 SWAP2 DIV MUL PUSH1 0x20 ADD PUSH1 0x40 MLOAD SWAP1 DUP2 ADD PUSH1 0x40 MSTORE DUP1 SWAP3 SWAP2 SWAP1 DUP2 DUP2 MSTORE PUSH1 0x20 ADD DUP3 DUP1 SLOAD PUSH2 0x590 SWAP1 PUSH2 0x1BFF JUMP JUMPDEST DUP1 ISZERO PUSH2 0x5DD JUMPI DUP1 PUSH1 0x1F LT PUSH2 0x5B2 JUMPI PUSH2 0x100 DUP1 DUP4 SLOAD DIV MUL DUP4 MSTORE SWAP2 PUSH1 0x20 ADD SWAP2 PUSH2 0x5DD JUMP JUMPDEST DUP3 ADD SWAP2 SWAP1 PUSH1 0x0 MSTORE PUSH1 0x20 PUSH1 0x0 KECCAK256 SWAP1 JUMPDEST DUP2 SLOAD DUP2 MSTORE SWAP1 PUSH1 0x1 ADD SWAP1 PUSH1 0x20 ADD DUP1 DUP4 GT PUSH2 0x5C0 JUMPI DUP3 SWAP1 SUB PUSH1 0x1F AND DUP3 ADD SWAP2 JUMPDEST POP POP POP POP POP DUP2 MSTORE PUSH1 0x20 ADD SWAP1 PUSH1 0x1 ADD SWAP1 PUSH2 0x545 JUMP JUMPDEST POP POP POP POP SWAP1 POP SWAP2 SWAP1 POP JUMP JUMPDEST PUSH1 0x60 DUP1 PUSH1 0x60 PUSH1 0x0 PUSH1 0x2 DUP6 PUSH1 0x40 MLOAD PUSH2 0x613 SWAP2 SWAP1 PUSH2 0x1B48 JUMP JUMPDEST SWAP1 DUP2 MSTORE PUSH1 0x20 ADD PUSH1 0x40 MLOAD DUP1 SWAP2 SUB SWAP1 KECCAK256 DUP1 SLOAD DUP1 PUSH1 0x20 MUL PUSH1 0x20 ADD PUSH1 0x40 MLOAD SWAP1 DUP2 ADD PUSH1 0x40 MSTORE DUP1 SWAP3 SWAP2 SWAP1 DUP2 DUP2 MSTORE PUSH1 0x20 ADD PUSH1 0x0 SWAP1 JUMPDEST DUP3 DUP3 LT ISZERO PUSH2 0x725 JUMPI PUSH1 0x0 DUP5 DUP2 MSTORE PUSH1 0x20 SWAP1 DUP2 SWAP1 KECCAK256 PUSH1 0x40 DUP1 MLOAD PUSH1 0x60 DUP2 ADD DUP3 MSTORE PUSH1 0x3 DUP7 MUL SWAP1 SWAP3 ADD DUP1 SLOAD PUSH1 0x1 PUSH1 0x1 PUSH1 0xA0 SHL SUB AND DUP4 MSTORE PUSH1 0x1 DUP2 ADD SLOAD SWAP4 DUP4 ADD SWAP4 SWAP1 SWAP4 MSTORE PUSH1 0x2 DUP4 ADD DUP1 SLOAD SWAP3 SWAP4 SWAP3 SWAP2 DUP5 ADD SWAP2 PUSH2 0x694 SWAP1 PUSH2 0x1BFF JUMP JUMPDEST DUP1 PUSH1 0x1F ADD PUSH1 0x20 DUP1 SWAP2 DIV MUL PUSH1 0x20 ADD PUSH1 0x40 MLOAD SWAP1 DUP2 ADD PUSH1 0x40 MSTORE DUP1 SWAP3 SWAP2 SWAP1 DUP2 DUP2 MSTORE PUSH1 0x20 ADD DUP3 DUP1 SLOAD PUSH2 0x6C0 SWAP1 PUSH2 0x1BFF JUMP JUMPDEST DUP1 ISZERO PUSH2 0x70D JUMPI DUP1 PUSH1 0x1F LT PUSH2 0x6E2 JUMPI PUSH2 0x100 DUP1 DUP4 SLOAD DIV MUL DUP4 MSTORE SWAP2 PUSH1 0x20 ADD SWAP2 PUSH2 0x70D JUMP JUMPDEST DUP3 ADD SWAP2 SWAP1 PUSH1 0x0 MSTORE PUSH1 0x20 PUSH1 0x0 KECCAK256 SWAP1 JUMPDEST DUP2 SLOAD DUP2 MSTORE SWAP1 PUSH1 0x1 ADD SWAP1 PUSH1 0x20 ADD DUP1 DUP4 GT PUSH2 0x6F0 JUMPI DUP3 SWAP1 SUB PUSH1 0x1F AND DUP3 ADD SWAP2 JUMPDEST POP POP POP POP POP DUP2 MSTORE POP POP DUP2 MSTORE PUSH1 0x20 ADD SWAP1 PUSH1 0x1 ADD SWAP1 PUSH2 0x641 JUMP JUMPDEST POP POP POP POP SWAP1 POP PUSH1 0x0 DUP2 MLOAD PUSH8 0xFFFFFFFFFFFFFFFF DUP2 GT ISZERO PUSH2 0x747 JUMPI PUSH2 0x747 PUSH2 0x1680 JUMP JUMPDEST PUSH1 0x40 MLOAD SWAP1 DUP1 DUP3 MSTORE DUP1 PUSH1 0x20 MUL PUSH1 0x20 ADD DUP3 ADD PUSH1 0x40 MSTORE DUP1 ISZERO PUSH2 0x770 JUMPI DUP2 PUSH1 0x20 ADD PUSH1 0x20 DUP3 MUL DUP1 CALLDATASIZE DUP4 CALLDATACOPY ADD SWAP1 POP JUMPDEST POP SWAP1 POP PUSH1 0x0 DUP3 MLOAD PUSH8 0xFFFFFFFFFFFFFFFF DUP2 GT ISZERO PUSH2 0x78F JUMPI PUSH2 0x78F PUSH2 0x1680 JUMP JUMPDEST PUSH1 0x40 MLOAD SWAP1 DUP1 DUP3 MSTORE DUP1 PUSH1 0x20 MUL PUSH1 0x20 ADD DUP3 ADD PUSH1 0x40 MSTORE DUP1 ISZERO PUSH2 0x7B8 JUMPI DUP2 PUSH1 0x20 ADD PUSH1 0x20 DUP3 MUL DUP1 CALLDATASIZE DUP4 CALLDATACOPY ADD SWAP1 POP JUMPDEST POP SWAP1 POP PUSH1 0x0 DUP4 MLOAD PUSH8 0xFFFFFFFFFFFFFFFF DUP2 GT ISZERO PUSH2 0x7D7 JUMPI PUSH2 0x7D7 PUSH2 0x1680 JUMP JUMPDEST PUSH1 0x40 MLOAD SWAP1 DUP1 DUP3 MSTORE DUP1 PUSH1 0x20 MUL PUSH1 0x20 ADD DUP3 ADD PUSH1 0x40 MSTORE DUP1 ISZERO PUSH2 0x80A JUMPI DUP2 PUSH1 0x20 ADD JUMPDEST PUSH1 0x60 DUP2 MSTORE PUSH1 0x20 ADD SWAP1 PUSH1 0x1 SWAP1 SUB SWAP1 DUP2 PUSH2 0x7F5 JUMPI SWAP1 POP JUMPDEST POP SWAP1 POP PUSH1 0x0 JUMPDEST DUP5 MLOAD DUP2 LT ISZERO PUSH2 0x8F3 JUMPI DUP5 DUP2 DUP2 MLOAD DUP2 LT PUSH2 0x82B JUMPI PUSH2 0x82B PUSH2 0x1B91 JUMP JUMPDEST PUSH1 0x20 MUL PUSH1 0x20 ADD ADD MLOAD PUSH1 0x0 ADD MLOAD DUP5 DUP3 DUP2 MLOAD DUP2 LT PUSH2 0x849 JUMPI PUSH2 0x849 PUSH2 0x1B91 JUMP JUMPDEST PUSH1 0x20 MUL PUSH1 0x20 ADD ADD SWAP1 PUSH1 0x1 PUSH1 0x1 PUSH1 0xA0 SHL SUB AND SWAP1 DUP2 PUSH1 0x1 PUSH1 0x1 PUSH1 0xA0 SHL SUB AND DUP2 MSTORE POP POP DUP5 DUP2 DUP2 MLOAD DUP2 LT PUSH2 0x87B JUMPI PUSH2 0x87B PUSH2 0x1B91 JUMP JUMPDEST PUSH1 0x20 MUL PUSH1 0x20 ADD ADD MLOAD PUSH1 0x20 ADD MLOAD DUP4 DUP3 DUP2 MLOAD DUP2 LT PUSH2 0x899 JUMPI PUSH2 0x899 PUSH2 0x1B91 JUMP JUMPDEST PUSH1 0x20 MUL PUSH1 0x20 ADD ADD DUP2 DUP2 MSTORE POP POP DUP5 DUP2 DUP2 MLOAD DUP2 LT PUSH2 0x8B7 JUMPI PUSH2 0x8B7 PUSH2 0x1B91 JUMP JUMPDEST PUSH1 0x20 MUL PUSH1 0x20 ADD ADD MLOAD PUSH1 0x40 ADD MLOAD DUP3 DUP3 DUP2 MLOAD DUP2 LT PUSH2 0x8D5 JUMPI PUSH2 0x8D5 PUSH2 0x1B91 JUMP JUMPDEST PUSH1 0x20 MUL PUSH1 0x20 ADD ADD DUP2 SWAP1 MSTORE POP DUP1 DUP1 PUSH2 0x8EB SWAP1 PUSH2 0x1BE6 JUMP JUMPDEST SWAP2 POP POP PUSH2 0x810 JUMP JUMPDEST POP SWAP2 SWAP8 SWAP1 SWAP7 POP SWAP1 SWAP5 POP SWAP3 POP POP POP JUMP JUMPDEST PUSH1 0x60 DUP1 PUSH1 0x0 DUP1 PUSH1 0x0 DUP1 PUSH1 0x0 DUP1 DUP9 PUSH1 0x40 MLOAD PUSH2 0x91C SWAP2 SWAP1 PUSH2 0x1B48 JUMP JUMPDEST SWAP1 DUP2 MSTORE PUSH1 0x20 ADD PUSH1 0x40 MLOAD DUP1 SWAP2 SUB SWAP1 KECCAK256 PUSH1 0x40 MLOAD DUP1 PUSH1 0xC0 ADD PUSH1 0x40 MSTORE SWAP1 DUP2 PUSH1 0x0 DUP3 ADD DUP1 SLOAD PUSH2 0x945 SWAP1 PUSH2 0x1BFF JUMP JUMPDEST DUP1 PUSH1 0x1F ADD PUSH1 0x20 DUP1 SWAP2 DIV MUL PUSH1 0x20 ADD PUSH1 0x40 MLOAD SWAP1 DUP2 ADD PUSH1 0x40 MSTORE DUP1 SWAP3 SWAP2 SWAP1 DUP2 DUP2 MSTORE PUSH1 0x20 ADD DUP3 DUP1 SLOAD PUSH2 0x971 SWAP1 PUSH2 0x1BFF JUMP JUMPDEST DUP1 ISZERO PUSH2 0x9BE JUMPI DUP1 PUSH1 0x1F LT PUSH2 0x993 JUMPI PUSH2 0x100 DUP1 DUP4 SLOAD DIV MUL DUP4 MSTORE SWAP2 PUSH1 0x20 ADD SWAP2 PUSH2 0x9BE JUMP JUMPDEST DUP3 ADD SWAP2 SWAP1 PUSH1 0x0 MSTORE PUSH1 0x20 PUSH1 0x0 KECCAK256 SWAP1 JUMPDEST DUP2 SLOAD DUP2 MSTORE SWAP1 PUSH1 0x1 ADD SWAP1 PUSH1 0x20 ADD DUP1 DUP4 GT PUSH2 0x9A1 JUMPI DUP3 SWAP1 SUB PUSH1 0x1F AND DUP3 ADD SWAP2 JUMPDEST POP POP POP POP POP DUP2 MSTORE PUSH1 0x20 ADD PUSH1 0x1 DUP3 ADD DUP1 SLOAD PUSH2 0x9D7 SWAP1 PUSH2 0x1BFF JUMP JUMPDEST DUP1 PUSH1 0x1F ADD PUSH1 0x20 DUP1 SWAP2 DIV MUL PUSH1 0x20 ADD PUSH1 0x40 MLOAD SWAP1 DUP2 ADD PUSH1 0x40 MSTORE DUP1 SWAP3 SWAP2 SWAP1 DUP2 DUP2 MSTORE PUSH1 0x20 ADD DUP3 DUP1 SLOAD PUSH2 0xA03 SWAP1 PUSH2 0x1BFF JUMP JUMPDEST DUP1 ISZERO PUSH2 0xA50 JUMPI DUP1 PUSH1 0x1F LT PUSH2 0xA25 JUMPI PUSH2 0x100 DUP1 DUP4 SLOAD DIV MUL DUP4 MSTORE SWAP2 PUSH1 0x20 ADD SWAP2 PUSH2 0xA50 JUMP JUMPDEST DUP3 ADD SWAP2 SWAP1 PUSH1 0x0 MSTORE PUSH1 0x20 PUSH1 0x0 KECCAK256 SWAP1 JUMPDEST DUP2 SLOAD DUP2 MSTORE SWAP1 PUSH1 0x1 ADD SWAP1 PUSH1 0x20 ADD DUP1 DUP4 GT PUSH2 0xA33 JUMPI DUP3 SWAP1 SUB PUSH1 0x1F AND DUP3 ADD SWAP2 JUMPDEST POP POP POP SWAP2 DUP4 MSTORE POP POP PUSH1 0x2 DUP3 ADD SLOAD PUSH1 0x1 PUSH1 0x1 PUSH1 0xA0 SHL SUB SWAP1 DUP2 AND PUSH1 0x20 DUP1 DUP5 ADD SWAP2 SWAP1 SWAP2 MSTORE PUSH1 0x3 DUP5 ADD SLOAD SWAP1 SWAP2 AND PUSH1 0x40 DUP1 DUP5 ADD SWAP2 SWAP1 SWAP2 MSTORE PUSH1 0x4 DUP5 ADD SLOAD PUSH1 0x60 DUP1 DUP6 ADD SWAP2 SWAP1 SWAP2 MSTORE PUSH1 0x5 SWAP1 SWAP5 ADD SLOAD PUSH1 0xFF AND ISZERO ISZERO PUSH1 0x80 SWAP4 DUP5 ADD MSTORE DUP5 MLOAD SWAP2 DUP6 ADD MLOAD SWAP1 DUP6 ADD MLOAD SWAP4 DUP6 ADD MLOAD SWAP3 DUP6 ADD MLOAD PUSH1 0xA0 SWAP1 SWAP6 ADD MLOAD SWAP2 SWAP14 SWAP1 SWAP13 POP SWAP3 SWAP11 POP SWAP1 SWAP9 POP SWAP2 SWAP7 POP SWAP1 SWAP5 POP SWAP3 POP POP POP JUMP JUMPDEST PUSH1 0x3 PUSH1 0x20 MSTORE DUP2 PUSH1 0x0 MSTORE PUSH1 0x40 PUSH1 0x0 KECCAK256 DUP2 DUP2 SLOAD DUP2 LT PUSH2 0xAEC JUMPI PUSH1 0x0 DUP1 REVERT JUMPDEST SWAP1 PUSH1 0x0 MSTORE PUSH1 0x20 PUSH1 0x0 KECCAK256 ADD PUSH1 0x0 SWAP2 POP SWAP2 POP POP DUP1 SLOAD PUSH2 0xB08 SWAP1 PUSH2 0x1BFF JUMP JUMPDEST DUP1 PUSH1 0x1F ADD PUSH1 0x20 DUP1 SWAP2 DIV MUL PUSH1 0x20 ADD PUSH1 0x40 MLOAD SWAP1 DUP2 ADD PUSH1 0x40 MSTORE DUP1 SWAP3 SWAP2 SWAP1 DUP2 DUP2 MSTORE PUSH1 0x20 ADD DUP3 DUP1 SLOAD PUSH2 0xB34 SWAP1 PUSH2 0x1BFF JUMP JUMPDEST DUP1 ISZERO PUSH2 0xB81 JUMPI DUP1 PUSH1 0x1F LT PUSH2 0xB56 JUMPI PUSH2 0x100 DUP1 DUP4 SLOAD DIV MUL DUP4 MSTORE SWAP2 PUSH1 0x20 ADD SWAP2 PUSH2 0xB81 JUMP JUMPDEST DUP3 ADD SWAP2 SWAP1 PUSH1 0x0 MSTORE PUSH1 0x20 PUSH1 0x0 KECCAK256 SWAP1 JUMPDEST DUP2 SLOAD DUP2 MSTORE SWAP1 PUSH1 0x1 ADD SWAP1 PUSH1 0x20 ADD DUP1 DUP4 GT PUSH2 0xB64 JUMPI DUP3 SWAP1 SUB PUSH1 0x1F AND DUP3 ADD SWAP2 JUMPDEST POP POP POP POP POP DUP2 JUMP JUMPDEST PUSH1 0x0 DUP2 PUSH1 0x1 PUSH1 0x1 PUSH1 0xA0 SHL SUB AND PUSH1 0x0 DUP5 PUSH1 0x40 MLOAD PUSH2 0xBA5 SWAP2 SWAP1 PUSH2 0x1B48 JUMP JUMPDEST SWAP1 DUP2 MSTORE PUSH1 0x40 MLOAD SWAP1 DUP2 SWAP1 SUB PUSH1 0x20 ADD SWAP1 KECCAK256 PUSH1 0x2 ADD SLOAD PUSH1 0x1 PUSH1 0x1 PUSH1 0xA0 SHL SUB AND SUB PUSH2 0xBCE JUMPI POP PUSH1 0x1 PUSH2 0xCA5 JUMP JUMPDEST PUSH1 0x0 PUSH1 0x1 DUP5 PUSH1 0x40 MLOAD PUSH2 0xBE0 SWAP2 SWAP1 PUSH2 0x1B48 JUMP JUMPDEST SWAP1 DUP2 MSTORE PUSH1 0x40 DUP1 MLOAD SWAP2 DUP3 SWAP1 SUB PUSH1 0x20 SWAP1 DUP2 ADD DUP4 KECCAK256 DUP1 SLOAD DUP1 DUP4 MUL DUP6 ADD DUP4 ADD SWAP1 SWAP4 MSTORE DUP3 DUP5 MSTORE SWAP2 SWAP1 DUP4 ADD DUP3 DUP3 DUP1 ISZERO PUSH2 0xC3C JUMPI PUSH1 0x20 MUL DUP3 ADD SWAP2 SWAP1 PUSH1 0x0 MSTORE PUSH1 0x20 PUSH1 0x0 KECCAK256 SWAP1 JUMPDEST DUP2 SLOAD PUSH1 0x1 PUSH1 0x1 PUSH1 0xA0 SHL SUB AND DUP2 MSTORE PUSH1 0x1 SWAP1 SWAP2 ADD SWAP1 PUSH1 0x20 ADD DUP1 DUP4 GT PUSH2 0xC1E JUMPI JUMPDEST POP POP POP POP POP SWAP1 POP PUSH1 0x0 JUMPDEST DUP2 MLOAD DUP2 LT ISZERO PUSH2 0xC9E JUMPI DUP4 PUSH1 0x1 PUSH1 0x1 PUSH1 0xA0 SHL SUB AND DUP3 DUP3 DUP2 MLOAD DUP2 LT PUSH2 0xC6B JUMPI PUSH2 0xC6B PUSH2 0x1B91 JUMP JUMPDEST PUSH1 0x20 MUL PUSH1 0x20 ADD ADD MLOAD PUSH1 0x1 PUSH1 0x1 PUSH1 0xA0 SHL SUB AND SUB PUSH2 0xC8C JUMPI PUSH1 0x1 SWAP3 POP POP POP PUSH2 0xCA5 JUMP JUMPDEST DUP1 PUSH2 0xC96 DUP2 PUSH2 0x1BE6 JUMP JUMPDEST SWAP2 POP POP PUSH2 0xC46 JUMP JUMPDEST POP PUSH1 0x0 SWAP2 POP POP JUMPDEST SWAP3 SWAP2 POP POP JUMP JUMPDEST DUP2 PUSH1 0x0 DUP2 PUSH1 0x40 MLOAD PUSH2 0xCBC SWAP2 SWAP1 PUSH2 0x1B48 JUMP JUMPDEST SWAP1 DUP2 MSTORE PUSH1 0x40 MLOAD SWAP1 DUP2 SWAP1 SUB PUSH1 0x20 ADD SWAP1 KECCAK256 PUSH1 0x5 ADD SLOAD PUSH1 0xFF AND PUSH2 0xCEE JUMPI PUSH1 0x40 MLOAD PUSH3 0x461BCD PUSH1 0xE5 SHL DUP2 MSTORE PUSH1 0x4 ADD PUSH2 0x2C2 SWAP1 PUSH2 0x1B64 JUMP JUMPDEST CALLER PUSH1 0x1 PUSH1 0x1 PUSH1 0xA0 SHL SUB AND PUSH1 0x0 DUP3 PUSH1 0x40 MLOAD PUSH2 0xD08 SWAP2 SWAP1 PUSH2 0x1B48 JUMP JUMPDEST SWAP1 DUP2 MSTORE PUSH1 0x40 MLOAD SWAP1 DUP2 SWAP1 SUB PUSH1 0x20 ADD SWAP1 KECCAK256 PUSH1 0x2 ADD SLOAD PUSH1 0x1 PUSH1 0x1 PUSH1 0xA0 SHL SUB AND EQ PUSH2 0xD66 JUMPI PUSH1 0x40 MLOAD PUSH3 0x461BCD PUSH1 0xE5 SHL DUP2 MSTORE PUSH1 0x20 PUSH1 0x4 DUP3 ADD MSTORE PUSH1 0x12 PUSH1 0x24 DUP3 ADD MSTORE PUSH18 0x2737BA103A3432903334B6329037BBB732B9 PUSH1 0x71 SHL PUSH1 0x44 DUP3 ADD MSTORE PUSH1 0x64 ADD PUSH2 0x2C2 JUMP JUMPDEST PUSH1 0x1 PUSH1 0x1 PUSH1 0xA0 SHL SUB DUP3 AND PUSH2 0xDB3 JUMPI PUSH1 0x40 MLOAD PUSH3 0x461BCD PUSH1 0xE5 SHL DUP2 MSTORE PUSH1 0x20 PUSH1 0x4 DUP3 ADD MSTORE PUSH1 0x14 PUSH1 0x24 DUP3 ADD MSTORE PUSH20 0x496E76616C696420757365722061646472657373 PUSH1 0x60 SHL PUSH1 0x44 DUP3 ADD MSTORE PUSH1 0x64 ADD PUSH2 0x2C2 JUMP JUMPDEST PUSH2 0xDBD DUP4 DUP4 PUSH2 0xB89 JUMP JUMPDEST ISZERO PUSH2 0xE0A JUMPI PUSH1 0x40 MLOAD PUSH3 0x461BCD PUSH1 0xE5 SHL DUP2 MSTORE PUSH1 0x20 PUSH1 0x4 DUP3 ADD MSTORE PUSH1 0x17 PUSH1 0x24 DUP3 ADD MSTORE PUSH32 0x5573657220616C726561647920617574686F72697A6564000000000000000000 PUSH1 0x44 DUP3 ADD MSTORE PUSH1 0x64 ADD PUSH2 0x2C2 JUMP JUMPDEST PUSH1 0x1 DUP4 PUSH1 0x40 MLOAD PUSH2 0xE1A SWAP2 SWAP1 PUSH2 0x1B48 JUMP JUMPDEST SWAP1 DUP2 MSTORE PUSH1 0x40 MLOAD SWAP1 DUP2 SWAP1 SUB PUSH1 0x20 SWAP1 DUP2 ADD DUP3 KECCAK256 DUP1 SLOAD PUSH1 0x1 DUP2 ADD DUP3 SSTORE PUSH1 0x0 SWAP2 DUP3 MSTORE SWAP2 SWAP1 KECCAK256 ADD DUP1 SLOAD PUSH1 0x1 PUSH1 0x1 PUSH1 0xA0 SHL SUB DUP6 AND PUSH1 0x1 PUSH1 0x1 PUSH1 0xA0 SHL SUB NOT SWAP1 SWAP2 AND DUP2 OR SWAP1 SWAP2 SSTORE CALLER SWAP2 PUSH2 0xE66 SWAP1 DUP7 SWAP1 PUSH2 0x1B48 JUMP JUMPDEST PUSH1 0x40 MLOAD SWAP1 DUP2 SWAP1 SUB DUP2 KECCAK256 SWAP1 PUSH32 0x4284BA4CDADE451C74E66C8449CFE35032420F69DFCD9D6CD394C269439B5BE SWAP1 PUSH1 0x0 SWAP1 LOG4 POP POP POP JUMP JUMPDEST DUP2 MLOAD PUSH1 0x20 DUP2 DUP5 ADD DUP2 ADD DUP1 MLOAD PUSH1 0x1 DUP3 MSTORE SWAP3 DUP3 ADD SWAP2 DUP6 ADD SWAP2 SWAP1 SWAP2 KECCAK256 SWAP2 SWAP1 MSTORE DUP1 SLOAD DUP3 SWAP1 DUP2 LT PUSH2 0xEC6 JUMPI PUSH1 0x0 DUP1 REVERT JUMPDEST PUSH1 0x0 SWAP2 DUP3 MSTORE PUSH1 0x20 SWAP1 SWAP2 KECCAK256 ADD SLOAD PUSH1 0x1 PUSH1 0x1 PUSH1 0xA0 SHL SUB AND SWAP2 POP DUP3 SWAP1 POP JUMP JUMPDEST PUSH1 0x60 PUSH1 0x1 DUP3 PUSH1 0x40 MLOAD PUSH2 0xEF4 SWAP2 SWAP1 PUSH2 0x1B48 JUMP JUMPDEST SWAP1 DUP2 MSTORE PUSH1 0x40 DUP1 MLOAD SWAP2 DUP3 SWAP1 SUB PUSH1 0x20 SWAP1 DUP2 ADD DUP4 KECCAK256 DUP1 SLOAD DUP1 DUP4 MUL DUP6 ADD DUP4 ADD SWAP1 SWAP4 MSTORE DUP3 DUP5 MSTORE SWAP2 SWAP1 DUP4 ADD DUP3 DUP3 DUP1 ISZERO PUSH2 0xF50 JUMPI PUSH1 0x20 MUL DUP3 ADD SWAP2 SWAP1 PUSH1 0x0 MSTORE PUSH1 0x20 PUSH1 0x0 KECCAK256 SWAP1 JUMPDEST DUP2 SLOAD PUSH1 0x1 PUSH1 0x1 PUSH1 0xA0 SHL SUB AND DUP2 MSTORE PUSH1 0x1 SWAP1 SWAP2 ADD SWAP1 PUSH1 0x20 ADD DUP1 DUP4 GT PUSH2 0xF32 JUMPI JUMPDEST POP POP POP POP POP SWAP1 POP SWAP2 SWAP1 POP JUMP JUMPDEST PUSH1 0x0 DUP4 MLOAD GT PUSH2 0xFAD JUMPI PUSH1 0x40 MLOAD PUSH3 0x461BCD PUSH1 0xE5 SHL DUP2 MSTORE PUSH1 0x20 PUSH1 0x4 DUP3 ADD MSTORE PUSH1 0x19 PUSH1 0x24 DUP3 ADD MSTORE PUSH32 0x46696C6520686173682063616E6E6F7420626520656D70747900000000000000 PUSH1 0x44 DUP3 ADD MSTORE PUSH1 0x64 ADD PUSH2 0x2C2 JUMP JUMPDEST PUSH1 0x0 DUP3 MLOAD GT PUSH2 0xFFE JUMPI PUSH1 0x40 MLOAD PUSH3 0x461BCD PUSH1 0xE5 SHL DUP2 MSTORE PUSH1 0x20 PUSH1 0x4 DUP3 ADD MSTORE PUSH1 0x18 PUSH1 0x24 DUP3 ADD MSTORE PUSH32 0x49504653204349442063616E6E6F7420626520656D7074790000000000000000 PUSH1 0x44 DUP3 ADD MSTORE PUSH1 0x64 ADD PUSH2 0x2C2 JUMP JUMPDEST PUSH1 0x0 DUP4 PUSH1 0x40 MLOAD PUSH2 0x100E SWAP2 SWAP1 PUSH2 0x1B48 JUMP JUMPDEST SWAP1 DUP2 MSTORE PUSH1 0x40 MLOAD SWAP1 DUP2 SWAP1 SUB PUSH1 0x20 ADD SWAP1 KECCAK256 PUSH1 0x5 ADD SLOAD PUSH1 0xFF AND ISZERO PUSH2 0x1067 JUMPI PUSH1 0x40 MLOAD PUSH3 0x461BCD PUSH1 0xE5 SHL DUP2 MSTORE PUSH1 0x20 PUSH1 0x4 DUP3 ADD MSTORE PUSH1 0x13 PUSH1 0x24 DUP3 ADD MSTORE PUSH19 0x46696C6520616C726561647920657869737473 PUSH1 0x68 SHL PUSH1 0x44 DUP3 ADD MSTORE PUSH1 0x64 ADD PUSH2 0x2C2 JUMP JUMPDEST PUSH1 0x40 DUP1 MLOAD PUSH1 0xC0 DUP2 ADD DUP3 MSTORE DUP5 DUP2 MSTORE PUSH1 0x20 DUP2 ADD DUP5 SWAP1 MSTORE CALLER DUP2 DUP4 ADD MSTORE PUSH1 0x1 PUSH1 0x1 PUSH1 0xA0 SHL SUB DUP4 AND PUSH1 0x60 DUP3 ADD MSTORE TIMESTAMP PUSH1 0x80 DUP3 ADD MSTORE PUSH1 0x1 PUSH1 0xA0 DUP3 ADD MSTORE SWAP1 MLOAD PUSH1 0x0 SWAP1 PUSH2 0x10AC SWAP1 DUP7 SWAP1 PUSH2 0x1B48 JUMP JUMPDEST SWAP1 DUP2 MSTORE PUSH1 0x40 MLOAD SWAP1 DUP2 SWAP1 SUB PUSH1 0x20 ADD SWAP1 KECCAK256 DUP2 MLOAD DUP2 SWAP1 PUSH2 0x10C9 SWAP1 DUP3 PUSH2 0x1C88 JUMP JUMPDEST POP PUSH1 0x20 DUP3 ADD MLOAD PUSH1 0x1 DUP3 ADD SWAP1 PUSH2 0x10DE SWAP1 DUP3 PUSH2 0x1C88 JUMP JUMPDEST POP PUSH1 0x40 DUP3 DUP2 ADD MLOAD PUSH1 0x2 DUP4 ADD DUP1 SLOAD PUSH1 0x1 PUSH1 0x1 PUSH1 0xA0 SHL SUB NOT SWAP1 DUP2 AND PUSH1 0x1 PUSH1 0x1 PUSH1 0xA0 SHL SUB SWAP4 DUP5 AND OR SWAP1 SWAP2 SSTORE PUSH1 0x60 DUP6 ADD MLOAD PUSH1 0x3 DUP1 DUP7 ADD DUP1 SLOAD SWAP1 SWAP4 AND SWAP2 SWAP1 SWAP4 AND OR SWAP1 SSTORE PUSH1 0x80 DUP5 ADD MLOAD PUSH1 0x4 DUP5 ADD SSTORE PUSH1 0xA0 SWAP1 SWAP4 ADD MLOAD PUSH1 0x5 SWAP1 SWAP3 ADD DUP1 SLOAD PUSH1 0xFF NOT AND SWAP3 ISZERO ISZERO SWAP3 SWAP1 SWAP3 OR SWAP1 SWAP2 SSTORE CALLER PUSH1 0x0 SWAP1 DUP2 MSTORE PUSH1 0x20 SWAP3 DUP4 MSTORE SWAP1 DUP2 KECCAK256 DUP1 SLOAD PUSH1 0x1 DUP2 ADD DUP3 SSTORE SWAP1 DUP3 MSTORE SWAP2 SWAP1 KECCAK256 ADD PUSH2 0x1168 DUP5 DUP3 PUSH2 0x1C88 JUMP JUMPDEST POP PUSH1 0x1 PUSH1 0x1 PUSH1 0xA0 SHL SUB DUP2 AND ISZERO PUSH2 0x11C3 JUMPI PUSH1 0x1 DUP4 PUSH1 0x40 MLOAD PUSH2 0x1188 SWAP2 SWAP1 PUSH2 0x1B48 JUMP JUMPDEST SWAP1 DUP2 MSTORE PUSH1 0x40 MLOAD PUSH1 0x20 SWAP2 DUP2 SWAP1 SUB DUP3 ADD SWAP1 KECCAK256 DUP1 SLOAD PUSH1 0x1 DUP2 ADD DUP3 SSTORE PUSH1 0x0 SWAP2 DUP3 MSTORE SWAP2 SWAP1 KECCAK256 ADD DUP1 SLOAD PUSH1 0x1 PUSH1 0x1 PUSH1 0xA0 SHL SUB NOT AND PUSH1 0x1 PUSH1 0x1 PUSH1 0xA0 SHL SUB DUP4 AND OR SWAP1 SSTORE JUMPDEST DUP1 PUSH1 0x1 PUSH1 0x1 PUSH1 0xA0 SHL SUB AND CALLER PUSH1 0x1 PUSH1 0x1 PUSH1 0xA0 SHL SUB AND DUP5 PUSH1 0x40 MLOAD PUSH2 0x11E5 SWAP2 SWAP1 PUSH2 0x1B48 JUMP JUMPDEST PUSH1 0x40 MLOAD DUP1 SWAP2 SUB SWAP1 KECCAK256 PUSH32 0x8CCA4564155382FFF489E79F6DAC28285021DD184EBCEDB6790EF06986B2DEC7 DUP6 TIMESTAMP PUSH1 0x40 MLOAD PUSH2 0x121E SWAP3 SWAP2 SWAP1 PUSH2 0x1D48 JUMP JUMPDEST PUSH1 0x40 MLOAD DUP1 SWAP2 SUB SWAP1 LOG4 POP POP POP JUMP JUMPDEST DUP2 PUSH1 0x0 DUP2 PUSH1 0x40 MLOAD PUSH2 0x123C SWAP2 SWAP1 PUSH2 0x1B48 JUMP JUMPDEST SWAP1 DUP2 MSTORE PUSH1 0x40 MLOAD SWAP1 DUP2 SWAP1 SUB PUSH1 0x20 ADD SWAP1 KECCAK256 PUSH1 0x5 ADD SLOAD PUSH1 0xFF AND PUSH2 0x126E JUMPI PUSH1 0x40 MLOAD PUSH3 0x461BCD PUSH1 0xE5 SHL DUP2 MSTORE PUSH1 0x4 ADD PUSH2 0x2C2 SWAP1 PUSH2 0x1B64 JUMP JUMPDEST CALLER PUSH1 0x1 PUSH1 0x1 PUSH1 0xA0 SHL SUB AND PUSH1 0x0 DUP3 PUSH1 0x40 MLOAD PUSH2 0x1288 SWAP2 SWAP1 PUSH2 0x1B48 JUMP JUMPDEST SWAP1 DUP2 MSTORE PUSH1 0x40 MLOAD SWAP1 DUP2 SWAP1 SUB PUSH1 0x20 ADD SWAP1 KECCAK256 PUSH1 0x2 ADD SLOAD PUSH1 0x1 PUSH1 0x1 PUSH1 0xA0 SHL SUB AND EQ DUP1 PUSH2 0x12B5 JUMPI POP PUSH2 0x12B5 DUP2 CALLER PUSH2 0xB89 JUMP JUMPDEST PUSH2 0x130C JUMPI PUSH1 0x40 MLOAD PUSH3 0x461BCD PUSH1 0xE5 SHL DUP2 MSTORE PUSH1 0x20 PUSH1 0x4 DUP3 ADD MSTORE PUSH1 0x22 PUSH1 0x24 DUP3 ADD MSTORE PUSH32 0x4E6F7420617574686F72697A656420746F206163636573732074686973206669 PUSH1 0x44 DUP3 ADD MSTORE PUSH2 0x6C65 PUSH1 0xF0 SHL PUSH1 0x64 DUP3 ADD MSTORE PUSH1 0x84 ADD PUSH2 0x2C2 JUMP JUMPDEST PUSH1 0x0 DUP3 MLOAD GT PUSH2 0x1356 JUMPI PUSH1 0x40 MLOAD PUSH3 0x461BCD PUSH1 0xE5 SHL DUP2 MSTORE PUSH1 0x20 PUSH1 0x4 DUP3 ADD MSTORE PUSH1 0x16 PUSH1 0x24 DUP3 ADD MSTORE PUSH22 0x416374696F6E2063616E6E6F7420626520656D707479 PUSH1 0x50 SHL PUSH1 0x44 DUP3 ADD MSTORE PUSH1 0x64 ADD PUSH2 0x2C2 JUMP JUMPDEST PUSH1 0x2 DUP4 PUSH1 0x40 MLOAD PUSH2 0x1366 SWAP2 SWAP1 PUSH2 0x1B48 JUMP JUMPDEST SWAP1 DUP2 MSTORE PUSH1 0x40 DUP1 MLOAD PUSH1 0x20 SWAP3 DUP2 SWAP1 SUB DUP4 ADD DUP2 KECCAK256 PUSH1 0x60 DUP3 ADD DUP4 MSTORE CALLER DUP3 MSTORE TIMESTAMP DUP5 DUP4 ADD SWAP1 DUP2 MSTORE SWAP3 DUP3 ADD DUP7 DUP2 MSTORE DUP2 SLOAD PUSH1 0x1 DUP1 DUP3 ADD DUP5 SSTORE PUSH1 0x0 SWAP4 DUP5 MSTORE SWAP6 SWAP1 SWAP3 KECCAK256 DUP4 MLOAD PUSH1 0x3 SWAP1 SWAP4 MUL ADD DUP1 SLOAD PUSH1 0x1 PUSH1 0x1 PUSH1 0xA0 SHL SUB NOT AND PUSH1 0x1 PUSH1 0x1 PUSH1 0xA0 SHL SUB SWAP1 SWAP4 AND SWAP3 SWAP1 SWAP3 OR DUP3 SSTORE SWAP3 MLOAD SWAP4 DUP2 ADD SWAP4 SWAP1 SWAP4 SSTORE SWAP1 MLOAD SWAP1 SWAP2 SWAP1 PUSH1 0x2 DUP3 ADD SWAP1 PUSH2 0x13E1 SWAP1 DUP3 PUSH2 0x1C88 JUMP JUMPDEST POP POP PUSH1 0x40 MLOAD CALLER SWAP2 POP PUSH2 0x13F4 SWAP1 DUP6 SWAP1 PUSH2 0x1B48 JUMP JUMPDEST PUSH1 0x40 MLOAD DUP1 SWAP2 SUB SWAP1 KECCAK256 PUSH32 0xE923D4BD4038AE165D90AEE570FB1423C37FD46FA3911F5EA54585F52E08E520 TIMESTAMP DUP6 PUSH1 0x40 MLOAD PUSH2 0x142D SWAP3 SWAP2 SWAP1 PUSH2 0x1D6A JUMP JUMPDEST PUSH1 0x40 MLOAD DUP1 SWAP2 SUB SWAP1 LOG3 POP POP POP JUMP JUMPDEST DUP1 MLOAD PUSH1 0x20 DUP2 DUP4 ADD DUP2 ADD DUP1 MLOAD PUSH1 0x0 DUP3 MSTORE SWAP3 DUP3 ADD SWAP2 SWAP1 SWAP4 ADD KECCAK256 SWAP2 MSTORE DUP1 SLOAD DUP2 SWAP1 PUSH2 0x1460 SWAP1 PUSH2 0x1BFF JUMP JUMPDEST DUP1 PUSH1 0x1F ADD PUSH1 0x20 DUP1 SWAP2 DIV MUL PUSH1 0x20 ADD PUSH1 0x40 MLOAD SWAP1 DUP2 ADD PUSH1 0x40 MSTORE DUP1 SWAP3 SWAP2 SWAP1 DUP2 DUP2 MSTORE PUSH1 0x20 ADD DUP3 DUP1 SLOAD PUSH2 0x148C SWAP1 PUSH2 0x1BFF JUMP JUMPDEST DUP1 ISZERO PUSH2 0x14D9 JUMPI DUP1 PUSH1 0x1F LT PUSH2 0x14AE JUMPI PUSH2 0x100 DUP1 DUP4 SLOAD DIV MUL DUP4 MSTORE SWAP2 PUSH1 0x20 ADD SWAP2 PUSH2 0x14D9 JUMP JUMPDEST DUP3 ADD SWAP2 SWAP1 PUSH1 0x0 MSTORE PUSH1 0x20 PUSH1 0x0 KECCAK256 SWAP1 JUMPDEST DUP2 SLOAD DUP2 MSTORE SWAP1 PUSH1 0x1 ADD SWAP1 PUSH1 0x20 ADD DUP1 DUP4 GT PUSH2 0x14BC JUMPI DUP3 SWAP1 SUB PUSH1 0x1F AND DUP3 ADD SWAP2 JUMPDEST POP POP POP POP POP SWAP1 DUP1 PUSH1 0x1 ADD DUP1 SLOAD PUSH2 0x14EE SWAP1 PUSH2 0x1BFF JUMP JUMPDEST DUP1 PUSH1 0x1F ADD PUSH1 0x20 DUP1 SWAP2 DIV MUL PUSH1 0x20 ADD PUSH1 0x40 MLOAD SWAP1 DUP2 ADD PUSH1 0x40 MSTORE DUP1 SWAP3 SWAP2 SWAP1 DUP2 DUP2 MSTORE PUSH1 0x20 ADD DUP3 DUP1 SLOAD PUSH2 0x151A SWAP1 PUSH2 0x1BFF JUMP JUMPDEST DUP1 ISZERO PUSH2 0x1567 JUMPI DUP1 PUSH1 0x1F LT PUSH2 0x153C JUMPI PUSH2 0x100 DUP1 DUP4 SLOAD DIV MUL DUP4 MSTORE SWAP2 PUSH1 0x20 ADD SWAP2 PUSH2 0x1567 JUMP JUMPDEST DUP3 ADD SWAP2 SWAP1 PUSH1 0x0 MSTORE PUSH1 0x20 PUSH1 0x0 KECCAK256 SWAP1 JUMPDEST DUP2 SLOAD DUP2 MSTORE SWAP1 PUSH1 0x1 ADD SWAP1 PUSH1 0x20 ADD DUP1 DUP4 GT PUSH2 0x154A JUMPI DUP3 SWAP1 SUB PUSH1 0x1F AND DUP3 ADD SWAP2 JUMPDEST POP POP POP POP PUSH1 0x2 DUP4 ADD SLOAD PUSH1 0x3 DUP5 ADD SLOAD PUSH1 0x4 DUP6 ADD SLOAD PUSH1 0x5 SWAP1 SWAP6 ADD SLOAD SWAP4 SWAP5 PUSH1 0x1 PUSH1 0x1 PUSH1 0xA0 SHL SUB SWAP3 DUP4 AND SWAP5 SWAP3 SWAP1 SWAP2 AND SWAP3 POP SWAP1 PUSH1 0xFF AND DUP7 JUMP JUMPDEST DUP2 MLOAD PUSH1 0x20 DUP2 DUP5 ADD DUP2 ADD DUP1 MLOAD PUSH1 0x2 DUP3 MSTORE SWAP3 DUP3 ADD SWAP2 DUP6 ADD SWAP2 SWAP1 SWAP2 KECCAK256 SWAP2 SWAP1 MSTORE DUP1 SLOAD DUP3 SWAP1 DUP2 LT PUSH2 0x15C6 JUMPI PUSH1 0x0 DUP1 REVERT JUMPDEST PUSH1 0x0 SWAP2 DUP3 MSTORE PUSH1 0x20 SWAP1 SWAP2 KECCAK256 PUSH1 0x3 SWAP1 SWAP2 MUL ADD DUP1 SLOAD PUSH1 0x1 DUP3 ADD SLOAD PUSH1 0x2 DUP4 ADD DUP1 SLOAD PUSH1 0x1 PUSH1 0x1 PUSH1 0xA0 SHL SUB SWAP1 SWAP4 AND SWAP6 POP SWAP1 SWAP4 POP SWAP1 PUSH2 0x15FD SWAP1 PUSH2 0x1BFF JUMP JUMPDEST DUP1 PUSH1 0x1F ADD PUSH1 0x20 DUP1 SWAP2 DIV MUL PUSH1 0x20 ADD PUSH1 0x40 MLOAD SWAP1 DUP2 ADD PUSH1 0x40 MSTORE DUP1 SWAP3 SWAP2 SWAP1 DUP2 DUP2 MSTORE PUSH1 0x20 ADD DUP3 DUP1 SLOAD PUSH2 0x1629 SWAP1 PUSH2 0x1BFF JUMP JUMPDEST DUP1 ISZERO PUSH2 0x1676 JUMPI DUP1 PUSH1 0x1F LT PUSH2 0x164B JUMPI PUSH2 0x100 DUP1 DUP4 SLOAD DIV MUL DUP4 MSTORE SWAP2 PUSH1 0x20 ADD SWAP2 PUSH2 0x1676 JUMP JUMPDEST DUP3 ADD SWAP2 SWAP1 PUSH1 0x0 MSTORE PUSH1 0x20 PUSH1 0x0 KECCAK256 SWAP1 JUMPDEST DUP2 SLOAD DUP2 MSTORE SWAP1 PUSH1 0x1 ADD SWAP1 PUSH1 0x20 ADD DUP1 DUP4 GT PUSH2 0x1659 JUMPI DUP3 SWAP1 SUB PUSH1 0x1F AND DUP3 ADD SWAP2 JUMPDEST POP POP POP POP POP SWAP1 POP DUP4 JUMP JUMPDEST PUSH4 0x4E487B71 PUSH1 0xE0 SHL PUSH1 0x0 MSTORE PUSH1 0x41 PUSH1 0x4 MSTORE PUSH1 0x24 PUSH1 0x0 REVERT JUMPDEST PUSH1 0x0 DUP3 PUSH1 0x1F DUP4 ADD SLT PUSH2 0x16A7 JUMPI PUSH1 0x0 DUP1 REVERT JUMPDEST DUP2 CALLDATALOAD PUSH8 0xFFFFFFFFFFFFFFFF DUP1 DUP3 GT ISZERO PUSH2 0x16C2 JUMPI PUSH2 0x16C2 PUSH2 0x1680 JUMP JUMPDEST PUSH1 0x40 MLOAD PUSH1 0x1F DUP4 ADD PUSH1 0x1F NOT SWAP1 DUP2 AND PUSH1 0x3F ADD AND DUP2 ADD SWAP1 DUP3 DUP3 GT DUP2 DUP4 LT OR ISZERO PUSH2 0x16EA JUMPI PUSH2 0x16EA PUSH2 0x1680 JUMP JUMPDEST DUP2 PUSH1 0x40 MSTORE DUP4 DUP2 MSTORE DUP7 PUSH1 0x20 DUP6 DUP9 ADD ADD GT ISZERO PUSH2 0x1703 JUMPI PUSH1 0x0 DUP1 REVERT JUMPDEST DUP4 PUSH1 0x20 DUP8 ADD PUSH1 0x20 DUP4 ADD CALLDATACOPY PUSH1 0x0 PUSH1 0x20 DUP6 DUP4 ADD ADD MSTORE DUP1 SWAP5 POP POP POP POP POP SWAP3 SWAP2 POP POP JUMP JUMPDEST DUP1 CALLDATALOAD PUSH1 0x1 PUSH1 0x1 PUSH1 0xA0 SHL SUB DUP2 AND DUP2 EQ PUSH2 0x173A JUMPI PUSH1 0x0 DUP1 REVERT JUMPDEST SWAP2 SWAP1 POP JUMP JUMPDEST PUSH1 0x0 DUP1 PUSH1 0x40 DUP4 DUP6 SUB SLT ISZERO PUSH2 0x1752 JUMPI PUSH1 0x0 DUP1 REVERT JUMPDEST DUP3 CALLDATALOAD PUSH8 0xFFFFFFFFFFFFFFFF DUP2 GT ISZERO PUSH2 0x1769 JUMPI PUSH1 0x0 DUP1 REVERT JUMPDEST PUSH2 0x1775 DUP6 DUP3 DUP7 ADD PUSH2 0x1696 JUMP JUMPDEST SWAP3 POP POP PUSH2 0x1784 PUSH1 0x20 DUP5 ADD PUSH2 0x1723 JUMP JUMPDEST SWAP1 POP SWAP3 POP SWAP3 SWAP1 POP JUMP JUMPDEST PUSH1 0x0 PUSH1 0x20 DUP3 DUP5 SUB SLT ISZERO PUSH2 0x179F JUMPI PUSH1 0x0 DUP1 REVERT JUMPDEST PUSH2 0x17A8 DUP3 PUSH2 0x1723 JUMP JUMPDEST SWAP4 SWAP3 POP POP POP JUMP JUMPDEST PUSH1 0x0 JUMPDEST DUP4 DUP2 LT ISZERO PUSH2 0x17CA JUMPI DUP2 DUP2 ADD MLOAD DUP4 DUP3 ADD MSTORE PUSH1 0x20 ADD PUSH2 0x17B2 JUMP JUMPDEST POP POP PUSH1 0x0 SWAP2 ADD MSTORE JUMP JUMPDEST PUSH1 0x0 DUP2 MLOAD DUP1 DUP5 MSTORE PUSH2 0x17EB DUP2 PUSH1 0x20 DUP7 ADD PUSH1 0x20 DUP7 ADD PUSH2 0x17AF JUMP JUMPDEST PUSH1 0x1F ADD PUSH1 0x1F NOT AND SWAP3 SWAP1 SWAP3 ADD PUSH1 0x20 ADD SWAP3 SWAP2 POP POP JUMP JUMPDEST PUSH1 0x0 DUP3 DUP3 MLOAD DUP1 DUP6 MSTORE PUSH1 0x20 DUP1 DUP7 ADD SWAP6 POP DUP1 DUP3 PUSH1 0x5 SHL DUP5 ADD ADD DUP2 DUP7 ADD PUSH1 0x0 JUMPDEST DUP5 DUP2 LT ISZERO PUSH2 0x184A JUMPI PUSH1 0x1F NOT DUP7 DUP5 SUB ADD DUP10 MSTORE PUSH2 0x1838 DUP4 DUP4 MLOAD PUSH2 0x17D3 JUMP JUMPDEST SWAP9 DUP5 ADD SWAP9 SWAP3 POP SWAP1 DUP4 ADD SWAP1 PUSH1 0x1 ADD PUSH2 0x181C JUMP JUMPDEST POP SWAP1 SWAP8 SWAP7 POP POP POP POP POP POP POP JUMP JUMPDEST PUSH1 0x20 DUP2 MSTORE PUSH1 0x0 PUSH2 0x17A8 PUSH1 0x20 DUP4 ADD DUP5 PUSH2 0x17FF JUMP JUMPDEST PUSH1 0x0 PUSH1 0x20 DUP3 DUP5 SUB SLT ISZERO PUSH2 0x187C JUMPI PUSH1 0x0 DUP1 REVERT JUMPDEST DUP2 CALLDATALOAD PUSH8 0xFFFFFFFFFFFFFFFF DUP2 GT ISZERO PUSH2 0x1893 JUMPI PUSH1 0x0 DUP1 REVERT JUMPDEST PUSH2 0x189F DUP5 DUP3 DUP6 ADD PUSH2 0x1696 JUMP JUMPDEST SWAP5 SWAP4 POP POP POP POP JUMP JUMPDEST PUSH1 0x0 DUP2 MLOAD DUP1 DUP5 MSTORE PUSH1 0x20 DUP1 DUP6 ADD SWAP5 POP DUP1 DUP5 ADD PUSH1 0x0 JUMPDEST DUP4 DUP2 LT ISZERO PUSH2 0x18E0 JUMPI DUP2 MLOAD PUSH1 0x1 PUSH1 0x1 PUSH1 0xA0 SHL SUB AND DUP8 MSTORE SWAP6 DUP3 ADD SWAP6 SWAP1 DUP3 ADD SWAP1 PUSH1 0x1 ADD PUSH2 0x18BB JUMP JUMPDEST POP SWAP5 SWAP6 SWAP5 POP POP POP POP POP JUMP JUMPDEST PUSH1 0x60 DUP2 MSTORE PUSH1 0x0 PUSH2 0x18FE PUSH1 0x60 DUP4 ADD DUP7 PUSH2 0x18A7 JUMP JUMPDEST DUP3 DUP2 SUB PUSH1 0x20 DUP5 DUP2 ADD SWAP2 SWAP1 SWAP2 MSTORE DUP6 MLOAD DUP1 DUP4 MSTORE DUP7 DUP3 ADD SWAP3 DUP3 ADD SWAP1 PUSH1 0x0 JUMPDEST DUP2 DUP2 LT ISZERO PUSH2 0x1935 JUMPI DUP5 MLOAD DUP4 MSTORE SWAP4 DUP4 ADD SWAP4 SWAP2 DUP4 ADD SWAP2 PUSH1 0x1 ADD PUSH2 0x1919 JUMP JUMPDEST POP POP DUP5 DUP2 SUB PUSH1 0x40 DUP7 ADD MSTORE PUSH2 0x1949 DUP2 DUP8 PUSH2 0x17FF JUMP JUMPDEST SWAP9 SWAP8 POP POP POP POP POP POP POP POP JUMP JUMPDEST PUSH1 0xC0 DUP2 MSTORE PUSH1 0x0 PUSH2 0x1968 PUSH1 0xC0 DUP4 ADD DUP10 PUSH2 0x17D3 JUMP JUMPDEST DUP3 DUP2 SUB PUSH1 0x20 DUP5 ADD MSTORE PUSH2 0x197A DUP2 DUP10 PUSH2 0x17D3 JUMP JUMPDEST PUSH1 0x1 PUSH1 0x1 PUSH1 0xA0 SHL SUB SWAP8 DUP9 AND PUSH1 0x40 DUP6 ADD MSTORE SWAP6 SWAP1 SWAP7 AND PUSH1 0x60 DUP4 ADD MSTORE POP PUSH1 0x80 DUP2 ADD SWAP3 SWAP1 SWAP3 MSTORE ISZERO ISZERO PUSH1 0xA0 SWAP1 SWAP2 ADD MSTORE SWAP4 SWAP3 POP POP POP JUMP JUMPDEST PUSH1 0x0 DUP1 PUSH1 0x40 DUP4 DUP6 SUB SLT ISZERO PUSH2 0x19BE JUMPI PUSH1 0x0 DUP1 REVERT JUMPDEST PUSH2 0x19C7 DUP4 PUSH2 0x1723 JUMP JUMPDEST SWAP5 PUSH1 0x20 SWAP4 SWAP1 SWAP4 ADD CALLDATALOAD SWAP4 POP POP POP JUMP JUMPDEST PUSH1 0x20 DUP2 MSTORE PUSH1 0x0 PUSH2 0x17A8 PUSH1 0x20 DUP4 ADD DUP5 PUSH2 0x17D3 JUMP JUMPDEST PUSH1 0x0 DUP1 PUSH1 0x40 DUP4 DUP6 SUB SLT ISZERO PUSH2 0x19FB JUMPI PUSH1 0x0 DUP1 REVERT JUMPDEST DUP3 CALLDATALOAD PUSH8 0xFFFFFFFFFFFFFFFF DUP2 GT ISZERO PUSH2 0x1A12 JUMPI PUSH1 0x0 DUP1 REVERT JUMPDEST PUSH2 0x1A1E DUP6 DUP3 DUP7 ADD PUSH2 0x1696 JUMP JUMPDEST SWAP6 PUSH1 0x20 SWAP5 SWAP1 SWAP5 ADD CALLDATALOAD SWAP5 POP POP POP POP JUMP JUMPDEST PUSH1 0x20 DUP2 MSTORE PUSH1 0x0 PUSH2 0x17A8 PUSH1 0x20 DUP4 ADD DUP5 PUSH2 0x18A7 JUMP JUMPDEST PUSH1 0x0 DUP1 PUSH1 0x0 PUSH1 0x60 DUP5 DUP7 SUB SLT ISZERO PUSH2 0x1A55 JUMPI PUSH1 0x0 DUP1 REVERT JUMPDEST DUP4 CALLDATALOAD PUSH8 0xFFFFFFFFFFFFFFFF DUP1 DUP3 GT ISZERO PUSH2 0x1A6D JUMPI PUSH1 0x0 DUP1 REVERT JUMPDEST PUSH2 0x1A79 DUP8 DUP4 DUP9 ADD PUSH2 0x1696 JUMP JUMPDEST SWAP5 POP PUSH1 0x20 DUP7 ADD CALLDATALOAD SWAP2 POP DUP1 DUP3 GT ISZERO PUSH2 0x1A8F JUMPI PUSH1 0x0 DUP1 REVERT JUMPDEST POP PUSH2 0x1A9C DUP7 DUP3 DUP8 ADD PUSH2 0x1696 JUMP JUMPDEST SWAP3 POP POP PUSH2 0x1AAB PUSH1 0x40 DUP6 ADD PUSH2 0x1723 JUMP JUMPDEST SWAP1 POP SWAP3 POP SWAP3 POP SWAP3 JUMP JUMPDEST PUSH1 0x0 DUP1 PUSH1 0x40 DUP4 DUP6 SUB SLT ISZERO PUSH2 0x1AC7 JUMPI PUSH1 0x0 DUP1 REVERT JUMPDEST DUP3 CALLDATALOAD PUSH8 0xFFFFFFFFFFFFFFFF DUP1 DUP3 GT ISZERO PUSH2 0x1ADF JUMPI PUSH1 0x0 DUP1 REVERT JUMPDEST PUSH2 0x1AEB DUP7 DUP4 DUP8 ADD PUSH2 0x1696 JUMP JUMPDEST SWAP4 POP PUSH1 0x20 DUP6 ADD CALLDATALOAD SWAP2 POP DUP1 DUP3 GT ISZERO PUSH2 0x1B01 JUMPI PUSH1 0x0 DUP1 REVERT JUMPDEST POP PUSH2 0x1B0E DUP6 DUP3 DUP7 ADD PUSH2 0x1696 JUMP JUMPDEST SWAP2 POP POP SWAP3 POP SWAP3 SWAP1 POP JUMP JUMPDEST PUSH1 0x1 DUP1 PUSH1 0xA0 SHL SUB DUP5 AND DUP2 MSTORE DUP3 PUSH1 0x20 DUP3 ADD MSTORE PUSH1 0x60 PUSH1 0x40 DUP3 ADD MSTORE PUSH1 0x0 PUSH2 0x1B3F PUSH1 0x60 DUP4 ADD DUP5 PUSH2 0x17D3 JUMP JUMPDEST SWAP6 SWAP5 POP POP POP POP POP JUMP JUMPDEST PUSH1 0x0 DUP3 MLOAD PUSH2 0x1B5A DUP2 DUP5 PUSH1 0x20 DUP8 ADD PUSH2 0x17AF JUMP JUMPDEST SWAP2 SWAP1 SWAP2 ADD SWAP3 SWAP2 POP POP JUMP JUMPDEST PUSH1 0x20 DUP1 DUP3 MSTORE PUSH1 0x13 SWAP1 DUP3 ADD MSTORE PUSH19 0x119A5B1948191BD95CC81B9BDD08195E1A5CDD PUSH1 0x6A SHL PUSH1 0x40 DUP3 ADD MSTORE PUSH1 0x60 ADD SWAP1 JUMP JUMPDEST PUSH4 0x4E487B71 PUSH1 0xE0 SHL PUSH1 0x0 MSTORE PUSH1 0x32 PUSH1 0x4 MSTORE PUSH1 0x24 PUSH1 0x0 REVERT JUMPDEST PUSH4 0x4E487B71 PUSH1 0xE0 SHL PUSH1 0x0 MSTORE PUSH1 0x11 PUSH1 0x4 MSTORE PUSH1 0x24 PUSH1 0x0 REVERT JUMPDEST DUP2 DUP2 SUB DUP2 DUP2 GT ISZERO PUSH2 0xCA5 JUMPI PUSH2 0xCA5 PUSH2 0x1BA7 JUMP JUMPDEST PUSH4 0x4E487B71 PUSH1 0xE0 SHL PUSH1 0x0 MSTORE PUSH1 0x31 PUSH1 0x4 MSTORE PUSH1 0x24 PUSH1 0x0 REVERT JUMPDEST PUSH1 0x0 PUSH1 0x1 DUP3 ADD PUSH2 0x1BF8 JUMPI PUSH2 0x1BF8 PUSH2 0x1BA7 JUMP JUMPDEST POP PUSH1 0x1 ADD SWAP1 JUMP JUMPDEST PUSH1 0x1 DUP2 DUP2 SHR SWAP1 DUP3 AND DUP1 PUSH2 0x1C13 JUMPI PUSH1 0x7F DUP3 AND SWAP2 POP JUMPDEST PUSH1 0x20 DUP3 LT DUP2 SUB PUSH2 0x1C33 JUMPI PUSH4 0x4E487B71 PUSH1 0xE0 SHL PUSH1 0x0 MSTORE PUSH1 0x22 PUSH1 0x4 MSTORE PUSH1 0x24 PUSH1 0x0 REVERT JUMPDEST POP SWAP2 SWAP1 POP JUMP JUMPDEST PUSH1 0x1F DUP3 GT ISZERO PUSH2 0x1C83 JUMPI PUSH1 0x0 DUP2 DUP2 MSTORE PUSH1 0x20 DUP2 KECCAK256 PUSH1 0x1F DUP6 ADD PUSH1 0x5 SHR DUP2 ADD PUSH1 0x20 DUP7 LT ISZERO PUSH2 0x1C60 JUMPI POP DUP1 JUMPDEST PUSH1 0x1F DUP6 ADD PUSH1 0x5 SHR DUP3 ADD SWAP2 POP JUMPDEST DUP2 DUP2 LT ISZERO PUSH2 0x1C7F JUMPI DUP3 DUP2 SSTORE PUSH1 0x1 ADD PUSH2 0x1C6C JUMP JUMPDEST POP POP POP JUMPDEST POP POP POP JUMP JUMPDEST DUP2 MLOAD PUSH8 0xFFFFFFFFFFFFFFFF DUP2 GT ISZERO PUSH2 0x1CA2 JUMPI PUSH2 0x1CA2 PUSH2 0x1680 JUMP JUMPDEST PUSH2 0x1CB6 DUP2 PUSH2 0x1CB0 DUP5 SLOAD PUSH2 0x1BFF JUMP JUMPDEST DUP5 PUSH2 0x1C39 JUMP JUMPDEST PUSH1 0x20 DUP1 PUSH1 0x1F DUP4 GT PUSH1 0x1 DUP2 EQ PUSH2 0x1CEB JUMPI PUSH1 0x0 DUP5 ISZERO PUSH2 0x1CD3 JUMPI POP DUP6 DUP4 ADD MLOAD JUMPDEST PUSH1 0x0 NOT PUSH1 0x3 DUP7 SWAP1 SHL SHR NOT AND PUSH1 0x1 DUP6 SWAP1 SHL OR DUP6 SSTORE PUSH2 0x1C7F JUMP JUMPDEST PUSH1 0x0 DUP6 DUP2 MSTORE PUSH1 0x20 DUP2 KECCAK256 PUSH1 0x1F NOT DUP7 AND SWAP2 JUMPDEST DUP3 DUP2 LT ISZERO PUSH2 0x1D1A JUMPI DUP9 DUP7 ADD MLOAD DUP3 SSTORE SWAP5 DUP5 ADD SWAP5 PUSH1 0x1 SWAP1 SWAP2 ADD SWAP1 DUP5 ADD PUSH2 0x1CFB JUMP JUMPDEST POP DUP6 DUP3 LT ISZERO PUSH2 0x1D38 JUMPI DUP8 DUP6 ADD MLOAD PUSH1 0x0 NOT PUSH1 0x3 DUP9 SWAP1 SHL PUSH1 0xF8 AND SHR NOT AND DUP2 SSTORE JUMPDEST POP POP POP POP POP PUSH1 0x1 SWAP1 DUP2 SHL ADD SWAP1 SSTORE POP JUMP JUMPDEST PUSH1 0x40 DUP2 MSTORE PUSH1 0x0 PUSH2 0x1D5B PUSH1 0x40 DUP4 ADD DUP6 PUSH2 0x17D3 JUMP JUMPDEST SWAP1 POP DUP3 PUSH1 0x20 DUP4 ADD MSTORE SWAP4 SWAP3 POP POP POP JUMP JUMPDEST DUP3 DUP2 MSTORE PUSH1 0x40 PUSH1 0x20 DUP3 ADD MSTORE PUSH1 0x0 PUSH2 0x189F PUSH1 0x40 DUP4 ADD DUP5 PUSH2 0x17D3 JUMP INVALID LOG2 PUSH5 0x6970667358 0x22 SLT KECCAK256 SWAP15 PUSH31 0xE8E187C2EE9DF5A40A3BE971F20A788F135DDC12412385047A69243158664 PUSH20 0x6F6C634300081300330000000000000000000000 "},"methodIdentifiers":{"accessLogs(string,uint256)":"e89ce5a1","addAuthorizedUser(string,address)":"a6815985","authorizedUsers(string,uint256)":"ad877314","files(string)":"e7755761","getAccessLogs(string)":"4bc19d34","getAuthorizedUsers(string)":"ad9fd981","getFileRecord(string)":"5f01f7b8","getTotalFiles()":"766e0d33","getUserFiles(address)":"1fc37922","isAuthorizedUser(string,address)":"8e3107fe","logAccess(string,string)":"d56812bb","removeAuthorizedUser(string,address)":"15582f7f","uploadFile(string,string,address)":"cdba8e0e","userFiles(address,uint256)":"718f38a6"}}}}}